{
  "_format": "hh-sol-artifact-1",
  "contractName": "PokemonFactory",
  "sourceName": "Contracts/PokemonFactory.sol",
  "abi": [
    {
      "anonymous": false,
      "inputs": [
        {
          "indexed": false,
          "internalType": "address",
          "name": "sender",
          "type": "address"
        },
        {
          "indexed": false,
          "internalType": "string",
          "name": "message",
          "type": "string"
        }
      ],
      "name": "eventNewPokemon",
      "type": "event"
    },
    {
      "inputs": [
        {
          "internalType": "uint256",
          "name": "",
          "type": "uint256"
        }
      ],
      "name": "SkillsbyId",
      "outputs": [
        {
          "internalType": "string",
          "name": "name",
          "type": "string"
        },
        {
          "internalType": "string",
          "name": "description",
          "type": "string"
        }
      ],
      "stateMutability": "view",
      "type": "function"
    },
    {
      "inputs": [
        {
          "internalType": "uint256",
          "name": "",
          "type": "uint256"
        }
      ],
      "name": "TypePokemonById",
      "outputs": [
        {
          "internalType": "string",
          "name": "name",
          "type": "string"
        },
        {
          "internalType": "string",
          "name": "description",
          "type": "string"
        }
      ],
      "stateMutability": "view",
      "type": "function"
    },
    {
      "inputs": [
        {
          "internalType": "uint256",
          "name": "",
          "type": "uint256"
        }
      ],
      "name": "WeaknessesPokemonById",
      "outputs": [
        {
          "internalType": "string",
          "name": "name",
          "type": "string"
        },
        {
          "internalType": "string",
          "name": "description",
          "type": "string"
        }
      ],
      "stateMutability": "view",
      "type": "function"
    },
    {
      "inputs": [
        {
          "internalType": "string",
          "name": "_name",
          "type": "string"
        },
        {
          "internalType": "uint256",
          "name": "_id",
          "type": "uint256"
        },
        {
          "internalType": "uint256[]",
          "name": "_skillsIds",
          "type": "uint256[]"
        },
        {
          "internalType": "uint256[]",
          "name": "_pokemonType",
          "type": "uint256[]"
        },
        {
          "internalType": "uint256[]",
          "name": "_pokemonWeaknesses",
          "type": "uint256[]"
        }
      ],
      "name": "createPokemon",
      "outputs": [],
      "stateMutability": "nonpayable",
      "type": "function"
    },
    {
      "inputs": [
        {
          "internalType": "string",
          "name": "_name",
          "type": "string"
        },
        {
          "internalType": "string",
          "name": "_description",
          "type": "string"
        },
        {
          "internalType": "uint256",
          "name": "_id",
          "type": "uint256"
        }
      ],
      "name": "createSkill",
      "outputs": [],
      "stateMutability": "nonpayable",
      "type": "function"
    },
    {
      "inputs": [
        {
          "internalType": "string",
          "name": "_name",
          "type": "string"
        },
        {
          "internalType": "string",
          "name": "_description",
          "type": "string"
        },
        {
          "internalType": "uint256",
          "name": "_id",
          "type": "uint256"
        }
      ],
      "name": "createType",
      "outputs": [],
      "stateMutability": "nonpayable",
      "type": "function"
    },
    {
      "inputs": [
        {
          "internalType": "string",
          "name": "_name",
          "type": "string"
        },
        {
          "internalType": "string",
          "name": "_description",
          "type": "string"
        },
        {
          "internalType": "uint256",
          "name": "_id",
          "type": "uint256"
        }
      ],
      "name": "createWeaknesses",
      "outputs": [],
      "stateMutability": "nonpayable",
      "type": "function"
    },
    {
      "inputs": [],
      "name": "getAllPokemons",
      "outputs": [
        {
          "components": [
            {
              "internalType": "uint256",
              "name": "id",
              "type": "uint256"
            },
            {
              "internalType": "string",
              "name": "name",
              "type": "string"
            },
            {
              "internalType": "uint256[]",
              "name": "skillsIds",
              "type": "uint256[]"
            },
            {
              "internalType": "uint256[]",
              "name": "pokemonType",
              "type": "uint256[]"
            },
            {
              "internalType": "uint256[]",
              "name": "pokemonWeaknesses",
              "type": "uint256[]"
            }
          ],
          "internalType": "struct PokemonFactory.Pokemon[]",
          "name": "",
          "type": "tuple[]"
        }
      ],
      "stateMutability": "view",
      "type": "function"
    },
    {
      "inputs": [],
      "name": "getAllSkills",
      "outputs": [
        {
          "components": [
            {
              "internalType": "string",
              "name": "name",
              "type": "string"
            },
            {
              "internalType": "string",
              "name": "description",
              "type": "string"
            }
          ],
          "internalType": "struct PokemonFactory.Skills[]",
          "name": "",
          "type": "tuple[]"
        }
      ],
      "stateMutability": "view",
      "type": "function"
    },
    {
      "inputs": [],
      "name": "getResult",
      "outputs": [
        {
          "internalType": "uint256",
          "name": "product",
          "type": "uint256"
        },
        {
          "internalType": "uint256",
          "name": "sum",
          "type": "uint256"
        }
      ],
      "stateMutability": "pure",
      "type": "function"
    },
    {
      "inputs": [
        {
          "internalType": "uint256",
          "name": "",
          "type": "uint256"
        }
      ],
      "name": "pokemonToOwner",
      "outputs": [
        {
          "internalType": "address",
          "name": "",
          "type": "address"
        }
      ],
      "stateMutability": "view",
      "type": "function"
    }
  ],
  "bytecode": "0x608060405234801561001057600080fd5b50611cfa806100206000396000f3fe608060405234801561001057600080fd5b50600436106100a95760003560e01c80639da28e9d116100715780639da28e9d14610165578063bee9448914610196578063ccc3bba8146101b2578063ddf5ba4e146101d0578063de292789146101ec578063fc3e72f61461020b576100a9565b80632f7467b3146100ae57806338a5be09146100de5780635b0f29bb146100fa5780635e9167901461012b57806390dc9cb914610149575b600080fd5b6100c860048036038101906100c39190610ee7565b61023c565b6040516100d59190610f55565b60405180910390f35b6100f860048036038101906100f391906110b6565b61026f565b005b610114600480360381019061010f9190610ee7565b61032b565b6040516101229291906111c0565b60405180910390f35b61013361045f565b604051610140919061144c565b60405180910390f35b610163600480360381019061015e91906110b6565b610662565b005b61017f600480360381019061017a9190610ee7565b61071e565b60405161018d9291906111c0565b60405180910390f35b6101b060048036038101906101ab91906110b6565b610852565b005b6101ba61090e565b6040516101c79190611574565b60405180910390f35b6101ea60048036038101906101e5919061165e565b610a91565b005b6101f4610cce565b604051610202929190611758565b60405180910390f35b61022560048036038101906102209190610ee7565b610cff565b6040516102339291906111c0565b60405180910390f35b60046020528060005260406000206000915054906101000a900473ffffffffffffffffffffffffffffffffffffffff1681565b60006040518060400160405280858152602001848152509050600281908060018154018082558091505060019003906000526020600020906002020160009091909190915060008201518160000190816102c9919061198d565b5060208201518160010190816102df919061198d565b5050508060086000848152602001908152602001600020600082015181600001908161030b919061198d565b506020820151816001019081610321919061198d565b5090505050505050565b600860205280600052604060002060009150905080600001805461034e906117b0565b80601f016020809104026020016040519081016040528092919081815260200182805461037a906117b0565b80156103c75780601f1061039c576101008083540402835291602001916103c7565b820191906000526020600020905b8154815290600101906020018083116103aa57829003601f168201915b5050505050908060010180546103dc906117b0565b80601f0160208091040260200160405190810160405280929190818152602001828054610408906117b0565b80156104555780601f1061042a57610100808354040283529160200191610455565b820191906000526020600020905b81548152906001019060200180831161043857829003601f168201915b5050505050905082565b60606000805480602002602001604051908101604052809291908181526020016000905b8282101561065957838290600052602060002090600502016040518060a0016040529081600082015481526020016001820180546104c0906117b0565b80601f01602080910402602001604051908101604052809291908181526020018280546104ec906117b0565b80156105395780601f1061050e57610100808354040283529160200191610539565b820191906000526020600020905b81548152906001019060200180831161051c57829003601f168201915b505050505081526020016002820180548060200260200160405190810160405280929190818152602001828054801561059157602002820191906000526020600020905b81548152602001906001019080831161057d575b50505050508152602001600382018054806020026020016040519081016040528092919081815260200182805480156105e957602002820191906000526020600020905b8154815260200190600101908083116105d5575b505050505081526020016004820180548060200260200160405190810160405280929190818152602001828054801561064157602002820191906000526020600020905b81548152602001906001019080831161062d575b50505050508152505081526020019060010190610483565b50505050905090565b60006040518060400160405280858152602001848152509050600381908060018154018082558091505060019003906000526020600020906002020160009091909190915060008201518160000190816106bc919061198d565b5060208201518160010190816106d2919061198d565b505050806009600084815260200190815260200160002060008201518160000190816106fe919061198d565b506020820151816001019081610714919061198d565b5090505050505050565b6009602052806000526040600020600091509050806000018054610741906117b0565b80601f016020809104026020016040519081016040528092919081815260200182805461076d906117b0565b80156107ba5780601f1061078f576101008083540402835291602001916107ba565b820191906000526020600020905b81548152906001019060200180831161079d57829003601f168201915b5050505050908060010180546107cf906117b0565b80601f01602080910402602001604051908101604052809291908181526020018280546107fb906117b0565b80156108485780601f1061081d57610100808354040283529160200191610848565b820191906000526020600020905b81548152906001019060200180831161082b57829003601f168201915b5050505050905082565b60006040518060400160405280858152602001848152509050600181908060018154018082558091505060019003906000526020600020906002020160009091909190915060008201518160000190816108ac919061198d565b5060208201518160010190816108c2919061198d565b505050806006600084815260200190815260200160002060008201518160000190816108ee919061198d565b506020820151816001019081610904919061198d565b5090505050505050565b60606001805480602002602001604051908101604052809291908181526020016000905b82821015610a885783829060005260206000209060020201604051806040016040529081600082018054610965906117b0565b80601f0160208091040260200160405190810160405280929190818152602001828054610991906117b0565b80156109de5780601f106109b3576101008083540402835291602001916109de565b820191906000526020600020905b8154815290600101906020018083116109c157829003601f168201915b505050505081526020016001820180546109f7906117b0565b80601f0160208091040260200160405190810160405280929190818152602001828054610a23906117b0565b8015610a705780601f10610a4557610100808354040283529160200191610a70565b820191906000526020600020905b815481529060010190602001808311610a5357829003601f168201915b50505050508152505081526020019060010190610932565b50505050905090565b60008411610ad4576040517f08c379a0000000000000000000000000000000000000000000000000000000008152600401610acb90611aab565b60405180910390fd5b60008590506002815111610b1d576040517f08c379a0000000000000000000000000000000000000000000000000000000008152600401610b1490611b3d565b60405180910390fd5b60006040518060a00160405280878152602001888152602001868152602001858152602001848152509080600181540180825580915050600190039060005260206000209060050201600090919091909150600082015181600001556020820151816001019081610b8e919061198d565b506040820151816002019080519060200190610bab929190610e33565b506060820151816003019080519060200190610bc8929190610e33565b506080820151816004019080519060200190610be5929190610e33565b505050336004600087815260200190815260200160002060006101000a81548173ffffffffffffffffffffffffffffffffffffffff021916908373ffffffffffffffffffffffffffffffffffffffff160217905550600560003373ffffffffffffffffffffffffffffffffffffffff1673ffffffffffffffffffffffffffffffffffffffff1681526020019081526020016000206000815480929190610c8a90611b8c565b91905055507fe5a4c13681fc1ec969a5d1e2a8f13730bca81a4041367c6493477d52103b1ce233604051610cbe9190611c20565b60405180910390a1505050505050565b6000806000600190506000600290508082610ce99190611c4e565b93508082610cf79190611c90565b925050509091565b6006602052806000526040600020600091509050806000018054610d22906117b0565b80601f0160208091040260200160405190810160405280929190818152602001828054610d4e906117b0565b8015610d9b5780601f10610d7057610100808354040283529160200191610d9b565b820191906000526020600020905b815481529060010190602001808311610d7e57829003601f168201915b505050505090806001018054610db0906117b0565b80601f0160208091040260200160405190810160405280929190818152602001828054610ddc906117b0565b8015610e295780601f10610dfe57610100808354040283529160200191610e29565b820191906000526020600020905b815481529060010190602001808311610e0c57829003601f168201915b5050505050905082565b828054828255906000526020600020908101928215610e6f579160200282015b82811115610e6e578251825591602001919060010190610e53565b5b509050610e7c9190610e80565b5090565b5b80821115610e99576000816000905550600101610e81565b5090565b6000604051905090565b600080fd5b600080fd5b6000819050919050565b610ec481610eb1565b8114610ecf57600080fd5b50565b600081359050610ee181610ebb565b92915050565b600060208284031215610efd57610efc610ea7565b5b6000610f0b84828501610ed2565b91505092915050565b600073ffffffffffffffffffffffffffffffffffffffff82169050919050565b6000610f3f82610f14565b9050919050565b610f4f81610f34565b82525050565b6000602082019050610f6a6000830184610f46565b92915050565b600080fd5b600080fd5b6000601f19601f8301169050919050565b7f4e487b7100000000000000000000000000000000000000000000000000000000600052604160045260246000fd5b610fc382610f7a565b810181811067ffffffffffffffff82111715610fe257610fe1610f8b565b5b80604052505050565b6000610ff5610e9d565b90506110018282610fba565b919050565b600067ffffffffffffffff82111561102157611020610f8b565b5b61102a82610f7a565b9050602081019050919050565b82818337600083830152505050565b600061105961105484611006565b610feb565b90508281526020810184848401111561107557611074610f75565b5b611080848285611037565b509392505050565b600082601f83011261109d5761109c610f70565b5b81356110ad848260208601611046565b91505092915050565b6000806000606084860312156110cf576110ce610ea7565b5b600084013567ffffffffffffffff8111156110ed576110ec610eac565b5b6110f986828701611088565b935050602084013567ffffffffffffffff81111561111a57611119610eac565b5b61112686828701611088565b925050604061113786828701610ed2565b9150509250925092565b600081519050919050565b600082825260208201905092915050565b60005b8381101561117b578082015181840152602081019050611160565b60008484015250505050565b600061119282611141565b61119c818561114c565b93506111ac81856020860161115d565b6111b581610f7a565b840191505092915050565b600060408201905081810360008301526111da8185611187565b905081810360208301526111ee8184611187565b90509392505050565b600081519050919050565b600082825260208201905092915050565b6000819050602082019050919050565b61122c81610eb1565b82525050565b600082825260208201905092915050565b600061124e82611141565b6112588185611232565b935061126881856020860161115d565b61127181610f7a565b840191505092915050565b600081519050919050565b600082825260208201905092915050565b6000819050602082019050919050565b60006112b48383611223565b60208301905092915050565b6000602082019050919050565b60006112d88261127c565b6112e28185611287565b93506112ed83611298565b8060005b8381101561131e57815161130588826112a8565b9750611310836112c0565b9250506001810190506112f1565b5085935050505092915050565b600060a0830160008301516113436000860182611223565b506020830151848203602086015261135b8282611243565b9150506040830151848203604086015261137582826112cd565b9150506060830151848203606086015261138f82826112cd565b915050608083015184820360808601526113a982826112cd565b9150508091505092915050565b60006113c2838361132b565b905092915050565b6000602082019050919050565b60006113e2826111f7565b6113ec8185611202565b9350836020820285016113fe85611213565b8060005b8581101561143a578484038952815161141b85826113b6565b9450611426836113ca565b925060208a01995050600181019050611402565b50829750879550505050505092915050565b6000602082019050818103600083015261146681846113d7565b905092915050565b600081519050919050565b600082825260208201905092915050565b6000819050602082019050919050565b600060408301600083015184820360008601526114b78282611243565b915050602083015184820360208601526114d18282611243565b9150508091505092915050565b60006114ea838361149a565b905092915050565b6000602082019050919050565b600061150a8261146e565b6115148185611479565b9350836020820285016115268561148a565b8060005b85811015611562578484038952815161154385826114de565b945061154e836114f2565b925060208a0199505060018101905061152a565b50829750879550505050505092915050565b6000602082019050818103600083015261158e81846114ff565b905092915050565b600067ffffffffffffffff8211156115b1576115b0610f8b565b5b602082029050602081019050919050565b600080fd5b60006115da6115d584611596565b610feb565b905080838252602082019050602084028301858111156115fd576115fc6115c2565b5b835b8181101561162657806116128882610ed2565b8452602084019350506020810190506115ff565b5050509392505050565b600082601f83011261164557611644610f70565b5b81356116558482602086016115c7565b91505092915050565b600080600080600060a0868803121561167a57611679610ea7565b5b600086013567ffffffffffffffff81111561169857611697610eac565b5b6116a488828901611088565b95505060206116b588828901610ed2565b945050604086013567ffffffffffffffff8111156116d6576116d5610eac565b5b6116e288828901611630565b935050606086013567ffffffffffffffff81111561170357611702610eac565b5b61170f88828901611630565b925050608086013567ffffffffffffffff8111156117305761172f610eac565b5b61173c88828901611630565b9150509295509295909350565b61175281610eb1565b82525050565b600060408201905061176d6000830185611749565b61177a6020830184611749565b9392505050565b7f4e487b7100000000000000000000000000000000000000000000000000000000600052602260045260246000fd5b600060028204905060018216806117c857607f821691505b6020821081036117db576117da611781565b5b50919050565b60008190508160005260206000209050919050565b60006020601f8301049050919050565b600082821b905092915050565b6000600883026118437fffffffffffffffffffffffffffffffffffffffffffffffffffffffffffffffff82611806565b61184d8683611806565b95508019841693508086168417925050509392505050565b6000819050919050565b600061188a61188561188084610eb1565b611865565b610eb1565b9050919050565b6000819050919050565b6118a48361186f565b6118b86118b082611891565b848454611813565b825550505050565b600090565b6118cd6118c0565b6118d881848461189b565b505050565b5b818110156118fc576118f16000826118c5565b6001810190506118de565b5050565b601f82111561194157611912816117e1565b61191b846117f6565b8101602085101561192a578190505b61193e611936856117f6565b8301826118dd565b50505b505050565b600082821c905092915050565b600061196460001984600802611946565b1980831691505092915050565b600061197d8383611953565b9150826002028217905092915050565b61199682611141565b67ffffffffffffffff8111156119af576119ae610f8b565b5b6119b982546117b0565b6119c4828285611900565b600060209050601f8311600181146119f757600084156119e5578287015190505b6119ef8582611971565b865550611a57565b601f198416611a05866117e1565b60005b82811015611a2d57848901518255600182019150602085019450602081019050611a08565b86831015611a4a5784890151611a46601f891682611953565b8355505b6001600288020188555050505b505050505050565b7f746865206964206d7573742062652067726561746572207468616e2030200000600082015250565b6000611a95601e8361114c565b9150611aa082611a5f565b602082019050919050565b60006020820190508181036000830152611ac481611a88565b9050919050565b7f546865206e616d65206d757374206265206c6f6e676572207468616e2032206360008201527f6861726163746572730000000000000000000000000000000000000000000000602082015250565b6000611b2760298361114c565b9150611b3282611acb565b604082019050919050565b60006020820190508181036000830152611b5681611b1a565b9050919050565b7f4e487b7100000000000000000000000000000000000000000000000000000000600052601160045260246000fd5b6000611b9782610eb1565b91507fffffffffffffffffffffffffffffffffffffffffffffffffffffffffffffffff8203611bc957611bc8611b5d565b5b600182019050919050565b7f6e657720706f6b656d6f6e206974732063726561746500000000000000000000600082015250565b6000611c0a60168361114c565b9150611c1582611bd4565b602082019050919050565b6000604082019050611c356000830184610f46565b8181036020830152611c4681611bfd565b905092915050565b6000611c5982610eb1565b9150611c6483610eb1565b9250828202611c7281610eb1565b91508282048414831517611c8957611c88611b5d565b5b5092915050565b6000611c9b82610eb1565b9150611ca683610eb1565b9250828201905080821115611cbe57611cbd611b5d565b5b9291505056fea264697066735822122049ecf2ae8ae6da9641ab0129e752d55ca781d4ca32dd589db881301e6c6c9cbf64736f6c63430008120033",
  "linkReferences": {},
  "deployedLinkReferences": {}
}